:020000004C2989
:10000600313083120313FD00FD0B072800000000AA
:020016000800E0
:10001800163083120313FC006C30FD00FD0B122810
:08002800FC0B12280000080087
:080030000000000000000800C0
:1000380083120313CE1B22288613232886174E1BF0
:100048002728061328280617CE1A2C2886122D28AA
:1000580086164E1A312806123228061644183628F3
:10006800061537280611861518208611CE193E2840
:1000780086133F2886174E19432806134428061767
:10008800CE1848288612492886164E184D2806127A
:100098004E280616441852280615532806118615A8
:1000A80018208611441C5A280C205B2803200800BD
:1000B800153083120313FD00FD0B602800000000BB
:0200C80008002E
:1000CA008312031344104D08CE001C204414080068
:0E00DA008312031348088A00470882000800BA
:1000E800831203139F01C0309F043009F000700889
:1000F80083169F051F179F1783124908F000F00DFC
:100108007010F00D7010F00D701070089F041F141F
:100118005C201F151F1D922800008E281F101E0826
:10012800F100F00183161E08F0040030F104080005
:1001380083160313861106110612861206138613F8
:1001480083128611061186130613861206120C20D6
:100158000C200C20861606168615182086110C20F1
:100168008615182086110C208615182086110C205B
:1001780006128615182086110C208615182086115F
:10018800861286178615182086110C2086130616E7
:1001980086151820861106128615182086110C203F
:1001A80086151820861106168615182086110C202B
:1001B8000612861518208611861706178616061643
:0C01C8008615182086110C204414080035
:1001D400FC28803083120313C9000F29C030C900E2
:1001E4000F299430C9000F29D430C9000F29803059
:1001F400C9000F29831203134908013A0319EB2894
:100204004908023A0319F0284908033A0319F32864
:100214004908043A0319F628F9284A03F000490862
:10022400F0077008C9007008CE001C204410CC01EF
:100234004C084B0784000008031928294C084B0775
:1002440084000008CD006520CC0A1A294414080053
:10025400FF3083120313C100FF30C200FF30C3001C
:10026400FF309F01C0309F043009F00070088316EE
:0C0274009F051F179F1783121F1408001E
:100280006D208A110A128000840AC70A0319C80A5D
:08029000F003031D40290800E2
:10029800A4212A219C200C30CE001C200130CE0045
:1002A8001C20831606108312C9017420700883125B
:1002B800C5007108C6008030013AF200803071062E
:1002C8007202031D692970082C3C0318742906144E
:1002D8000130C9000130CA003130CB00EA207C2946
:1002E80006100130C9000130CA002030CB00EA20D6
:0402F80057297D29DC
:1003480020308400213083120313F0008330C7006B
:080358000130C800402108003B
:100306004E344F342034473441345334203444344B
:100316004534543445344334543445344434003439
:020326000F3492
:100328002034203420344734413453342034443486
:100338004534543445344334543445344434003417
:02400E004A2F37
:00000001FF
